:100000000C9434000C943E000C943E000C943E0082
:100010000C943E000C943E000C943E000C943E0068
:100020000C943E000C943E000C943E000C943E0058
:100030000C943E000C943E000C943E000C943E0048
:100040000C943E000C943E000C943E000C943E0038
:100050000C943E000C943E000C943E000C943E0028
:100060000C943E000C943E0011241FBECFEFD8E04C
:10007000DEBFCDBF0E9440000C946C000C940000C9
:10008000229A219A209A2A9A299828982FEF39E5BE
:1000900082E692E02150304080409040D9F700C085
:1000A00000002A98299A28982FEF3BE782E92150EF
:1000B00030408040E1F700C000002A982998289A33
:1000C0009FEF29E532E682E09150204030408040A9
:0C00D000D9F700C00000D7CFF894FFCF94
:00000001FF
